:020000040800F2
:1000000008040020D1130008191300081B1300086E
:1000100000000000000000000000000000000000E0
:100020000000000000000000000000001F13000896
:100030000000000000000000211300082313000846
:100040004B0C00088713000893130008FB130008EB
:100050000D140008E11300080F1400081114000823
:1000600013140008151400081714000819140008C8
:100070001B1400081D1400081F1400082114000898
:1000800023140008251400080000000027140008AD
:10009000291400082B1400082D1400082F14000840
:1000A0003114000833140008351400083714000810
:1000B00039140008000000003B1400080000000094
:1000C00080B50020C44908700020C3494870002052
:1000D000C14988700020C04908710020A6490880E5
:1000E0000020A64908800020BB49C87000F0B8FA7B
:1000F00000F00CFB00F00EFB01BD80B580206946CE
:1001000008705A20694648700220B4490880684641
:10011000B349086000F01EFB01BD80B58020694630
:100120000870D220694648700220AC4908806846B1
:10013000AB49086000F00EFB01BD80B5A94800780E
:10014000A6490880A848A649086000F003FB01BD45
:1001500000B5002000210800C0B2102808DAA34929
:10016000C0B2095C9C4AC0B212189171401CF3E7FE
:1001700000BD000080B59D4840782D280FD04B2849
:1001800000D1C6E05A2800D1F0E0692835D0C32854
:100190007BD0D22800D1E8E0E12817D0E7E09348EF
:1001A00080784006400E8C49897888420DD1012024
:1001B000894908708D4880788C49C9784907490F6A
:1001C000C91D084140008449C870D3E08748807841
:1001D0004006400E8049897888420DD103207E492F
:1001E0000870824880788149C9784907490FC91D3C
:1001F000084140007849C870BCE07C4880784006DF
:10020000400E7549897888423ED1734800790028AC
:1002100004D0714800797049887009E000BF00BFC0
:1002200000BF00BF00BF00BF00BF00BF00BF00BFD6
:1002300052480088012803D101204F49088006E078
:1002400000BF00BF00BF00BF00BF00BF00BF6248CB
:100250004078022803D000BFFFF74FFF09E000BF3E
:1002600000BFFFF76AFF02205B49087003205A496C
:1002700048705E4880785D49C9784907490FC91DB3
:10028000084140005449C87074E053480078012880
:1002900018D100BF00BF00BF00BF00BF00BF00BF3C
:1002A00000BF00BF00BF00BF00BF00BF00BF00BF56
:1002B00000BF00BFFFF731FFFFF74AFF01204649AB
:1002C000487025E044480078032821D100BF00BFD2
:1002D00000BF00BF00BF00BF00BF00BF00BF00BF26
:1002E00000BF00BF00BF00BF00BF00BF00BF00BF16
:1002F00000BF00BF00BF00BF00BF00BFFFF70DFF82
:1003000035484078002801D1012000E00020C0B22B
:1003100030E031480078032826D100BF00BF00BF7D
:1003200000BF00BF00BF00BF00BF00BF00BF00BFD5
:1003300000BF00BF00BF00BF00BF00BF00BF00BFC5
:1003400000BF00BF00BF00BF00BF00BF00BF00BFB5
:1003500000BF00BFFFF7E1FE1F484078002801D131
:10036000012000E00020C0B204E003E002E0002031
:100370001949087001BD00007404002076040020B3
:1003800070B5A74B002215002A000E00D2B2F6B2BB
:10039000B24216D202785340401C082214002200B8
:1003A000541ED2B2002A0AD0DA0705D59BB25B08E8
:1003B0001A009C4B5340F2E79BB25B08EFE76D1CC1
:1003C000E2E71A0092B2D3431A000270401C1A00EE
:1003D00092B2120A027070BD380400207804002026
:1003E000700400205F0400204F0400200804002057
:1003F000F8B504000E001700FFB2002F02D04B200A
:1004000089490880F6B2002E4FD080208749C875F0
:100410008548008885490876F6B2082E11DB0C2045
:100420008349087002200500EDB20A2D07DA207812
:100430007E49EDB24919C875641C6D1CF4E7083E8D
:1004400015E03000001D7A49087002200500EDB269
:10045000F6B23000801C854207DA20787349EDB28D
:100460004919C875641C6D1CF1E70020060070482E
:100470000078011FC9B26F48FFF782FF6A48008801
:100480004B2803D1C3206849088002E04B2066490D
:100490000880022065494870644840780228B1D13C
:1004A000624840780328F7D1ACE7F1BD04206049E9
:1004B000087080205D49C8754B205C490876002093
:1004C0005A49487600205949887602205749487091
:1004D000704702205649087080205449C8751E2074
:1004E00052490876022051494870704780B54F48FC
:1004F0004078012800D081E04C48007A802851D112
:100500004A48407A062848D14848C07A012804D091
:1005100042D3032818D006D33EE0012212214648D8
:10052000FFF766FF6AE04148807B222806D201225D
:100530003E48817B4148FFF75BFF04E00122222116
:100540003E48FFF755FF59E03848807A002805D12A
:10055000012204213A48FFF74BFF1CE03348807A20
:10056000012805D101222A213648FFF741FF12E078
:100570002E48807A022805D1012212213248FFF745
:1005800037FF08E02948807A032804D10122082196
:100590002E48FFF72DFF31E030E02448407A002854
:1005A0002CD12BE02148007A002810D11F48407A36
:1005B000052802D0092807D020E01C48807A1B4972
:1005C0000871FFF773FF19E0FFF770FF16E0174897
:1005D000007A81280CD11548407A06280ED10122D4
:1005E00034211B48FFF704FF01201A49088005E069
:1005F0000E48007A212801D1FFF76BFF01BD80B5BD
:100600000A48C078002802D1FFF770FF06E00748CB
:10061000C078012802D00548C078022801BD00003A
:10062000FFFF000001A000007C040020380400202F
:100630005F04002051040020A8130008F4120008F1
:1006400004140008A0120008BC130008FC130008E2
:100650003C1200087604002080B5FFF7D0FFFCE7CD
:1006600000B583B001218020800200F07DFA0120D6
:1006700000900020694608710320694648710220F5
:100680006946C87100206946887169469020C00596
:1006900000F07CFA022000900020694608710320D7
:1006A0006946487102206946C87100206946887110
:1006B00069469020C00500F069FA042000900120EE
:1006C0006946087103206946487101206946C8716E
:1006D00000206946887169469020C00500F056FAEE
:1006E0000548064908600648064908609020C0058C
:1006F0000549086007BD00001400004860040020A0
:1007000010000048640400206804002080B500F058
:100710009DFA01BDE0B50021002000F021FB012081
:100720000190002001A90871082001A94871012049
:1007300001A9887101A800F041FB052069460870F5
:10074000012069464870012069468870684600F0BB
:1007500087FB07BDFFB44046494652465B460FB48F
:10076000704601B4FB4800688146FA4F3F683F88F5
:10077000F94807400220074348460780F74B1B68AB
:100780001A680120800002434000024342400120D9
:10079000000002434000024342401A600626F04D2A
:1007A0002D68F048008883460020824603200421FB
:1007B0000843804600BF00BFFFE700BF00BF5046B0
:1007C0002B5C584500D14FE1013082465B0811D3C4
:1007D00000BF00BF00BF00BF00BF00BF00BF00BF21
:1007E00000BF00BF00BF00BF00BF013E0ED100F040
:1007F00098F90BE00626404647404846078000BF70
:1008000000BF00BF00BF00BF00BFFFE700BF00BFC9
:1008100000BF00BF00BF00BF00BF00BF00BF00BFE0
:1008200000BF5B0811D300BF00BF00BF00BF00BF07
:1008300000BF00BF00BF00BF00BF00BF00BF00BFC0
:10084000013E0ED100F06DF90BE006264046474010
:100850004846078000BF00BF00BF00BF00BF00BF09
:10086000FFE700BF00BF00BF00BF00BF00BF00BF69
:1008700000BF00BF00BF00BF5B0811D300BF00BFB7
:1008800000BF00BF00BF00BF00BF00BF00BF00BF70
:1008900000BF00BF00BF013E0ED100F042F90BE0E7
:1008A0000626404647404846078000BF00BF00BFBD
:1008B00000BF00BF00BFFFE700BF00BF00BF00BF19
:1008C00000BF00BF00BF00BF00BF00BF00BF5B088C
:1008D00011D300BF00BF00BF00BF00BF00BF00BFFB
:1008E00000BF00BF00BF00BF00BF00BF013E0ED170
:1008F00000F017F90BE006264046474048460780BF
:1009000000BF00BF00BF00BF00BF00BFFFE700BFC8
:1009100000BF00BF00BF00BF00BF00BF00BF00BFDF
:1009200000BF00BF5B0811D300BF00BF00BF00BF06
:1009300000BF00BF00BF00BF00BF00BF00BF00BFBF
:1009400000BF013E0ED100F0ECF80BE00626404659
:1009500047404846078000BF00BF00BF00BF00BF40
:1009600000BFFFE700BF00BF00BF00BF00BF00BF68
:1009700000BF00BF00BF00BF00BF5B0811D300BFB6
:1009800000BF00BF00BF00BF00BF00BF00BF00BF6F
:1009900000BF00BF00BF00BF013E0ED100F0C1F894
:1009A0000BE00626404647404846078000BF00BF90
:1009B00000BF00BF00BF00BFFFE700BF00BF00BF18
:1009C00000BF00BF00BF00BF00BF00BF00BF00BF2F
:1009D0005B0811D300BF00BF00BF00BF00BF00BF56
:1009E00000BF00BF00BF00BF00BF00BF00BF013E8F
:1009F0000ED100F096F80BE00626404647404846E8
:100A0000078000BF00BF00BF00BF00BF00BFFFE7FF
:100A100000BF00BF00BF00BF00BF00BF00BF00BFDE
:100A200000BF00BF00BF5B0811D300BF00BF00BF05
:100A300000BF00BF00BF00BF00BF00BF00BF00BFBE
:100A400000BF00BF013E0ED100F06BF80BE00626A0
:100A5000404647404846078000BF00BF00BF00BF78
:100A600000BF00BFFFE7A8E600BF00BF00BF00BF98
:100A700000BF4046074347404846078000BF00BFCD
:100A800000BF00BF00BF00BF00BF00BF00BF00BF6E
:100A900000BF00BF00BF00BF00BF00BF00BF00BF5E
:100AA00000BF00BF00BF00BF00BF00BF00BF00BF4E
:100AB00000BF00BF00BF00BF00BF00BF00BF00BF3E
:100AC00000BF00BF00BF00BF00BF00BF00BF00BF2E
:100AD00000BF00BF00BF00BF00BF00BF00BF00BF1E
:100AE00000BF00BF00BF00BF00BF00BF00BF00BF0E
:100AF0000220074348460780184B1B681A680320EA
:100B000080000243424003200000024342401A603A
:100B100001BC86460FBC8046894692469B46FFBC78
:100B2000704700BF00BF00BF00BF00BF00BF00BFD5
:100B300000BF00BF00BF00BF00BF00BF0626404689
:100B400047404846078000BF00BF00BF00BF00BF4E
:100B50007047000060040020FCFFFFFF68040020D5
:100B6000700400207804002000B5C9B2002905D027
:100B7000054A12680243044B1A6004E0024A1268F4
:100B80008243014B1A6000BD14100240F0B50022F0
:100B90000023002400252A00102A55D20125954063
:100BA0002B000D681D402C009C424BD10D79012D6E
:100BB00002D00D79022D1DD186680327BC46150091
:100BC00002277D436746AF40BE43866086684F7903
:100BD000BC46150002277D436746AF403743876018
:100BE000858801269640B543858085888E79964014
:100BF0002E43868006680327BC46150002277D43E6
:100C00006746AF40BE43066006680F79BC461500D4
:100C100002277D436746AF4037430760C668032716
:100C2000BC46150002277D436746AF40BE43C66001
:100C3000C668CF79BC46150002277D436746AF40A2
:100C40003743C760521CA7E7F0BDFEE780B53848C0
:100C50000068012101433648016036480068364982
:100C6000014034480160324800683449014030484E
:100C700001602F480068324901402D4801602D482D
:100C80000068304901402B4801602F4800680F215F
:100C900088432D4908602D4800682D4901402B48A4
:100CA00001602C480068012188432A49086000201F
:100CB0002949086000F001F801BDC0B5002001908D
:100CC000002000901120254908601A480068194941
:100CD00008601848006817490860164800681949F4
:100CE00001401448016013480068A02189030143B2
:100CF000104801600E4800688021490401430C48F7
:100D000001600B4800688001FBD50A480068032198
:100D100088430849086007480068022101430548E4
:100D20000160044800680C2101400829F9D103BD85
:100D300000100240041002400CB8FFF8FFFFF6FE5E
:100D4000FFFFFBFFFFFFC0FF2C10024030100240EE
:100D5000ACFEFFFF341002400810024000200240A9
:100D600070B400220F238C07A40F04256C43A3400A
:100D70001A00114BC9B28C1004256C431B599343C4
:100D80000D4CC9B28D100426754363510A4BC9B28C
:100D90008C1004256C431C59C0B28D07AD0F042381
:100DA0005D430300AB402343034CC9B28D100426BE
:100DB0007543635170BC70470800014000B50021C5
:100DC000224A11008279002A36D0204A126803682C
:100DD0009A431E4B1A601E4A126803689A431C4BC2
:100DE0001A60027989180A68036813430B60194A6C
:100DF000126803689A43174B1A60174A126803680F
:100E00009A43154B1A604279102A0CD1114A126884
:100E1000036813430F4A13600F4A126803681343B1
:100E20000D4A13600EE0094A1100427989180A68D8
:100E3000036813430B6005E0027989180A680368A8
:100E40009A430A6000BD05490860704700040140EC
:100E500004040140080401400C0401401404014052
:100E600010B500218278002A27D0184A03789B10F9
:100E700004246343D2581100FF2203789B079B0F81
:100E8000082463439A4091430C0041788901C9B218
:100E900002789207920F08235A43914021430B4A4C
:100EA00003789B1004246343D15001220378DB06AE
:100EB000DB0E9A40064B1A6006E001220378DB063F
:100EC000DB0E9A40034B1A6010BD000000E400E006
:100ED00000E100E080E100E0FFB4404649465246B0
:100EE0005B460FB4704601B4A748006881460320F2
:100EF000804601270626A54D00248020285500BFE6
:100F000000BF00BF00BF00BF00BF00BF00BF00BFE9
:100F100000BF00BF0A2000BF00BF00BF00BF00BF6E
:100F200000BF00BF00BF00BF00BF00BF00BF01384F
:100F3000F1D1012200E0F6E000BF00BF00234846E7
:100F400000884146084000D1ECE000464740174089
:100F500057403B44F61B06D0002F02D10626074619
:100F600003E0074601E000F0EBF800BF00BF00BF60
:100F700000BF00BF00BF00BF202CDCD0D3414846DB
:100F800000884146084000D1CCE000464740174069
:100F900057403B44F61B07D0002F03D100BF062665
:100FA000074603E0074601E000F0CAF800BF00BFB3
:100FB00000BF00BF00BF0134D3414846008841460E
:100FC000084000D1AEE000464740174057403B4440
:100FD000F61B07D0002F03D100BF0626074603E00B
:100FE000074601E000F0ACF800BF00BF00BF00BF43
:100FF00000BF00BF00BFD3414846008841460840BB
:1010000000D18FE000464740174057403B44F61B55
:1010100007D0002F03D100BF0626074603E007468E
:1010200001E000F08DF800BF00BF00BF00BF00BFAF
:1010300000BF00BFD341484600884146084000D168
:1010400070E000464740174057403B44F61B07D02E
:10105000002F03D100BF0626074603E0074601E044
:1010600000F06EF800BF00BF00BF00BF00BF00BFB0
:1010700000BFD341484600884146084000D151E0B6
:1010800000464740174057403B44F61B07D0002F0F
:1010900003D100BF0626074603E0074601E000F043
:1010A0004FF800BF00BF00BF00BF00BF00BF00BFC0
:1010B000D341484600884146084000D132E000460E
:1010C0004740174057403B44F61B07D0002F03D141
:1010D00000BF0626074603E0074601E000F030F8AF
:1010E00000BF00BF00BF00BF00BF00BFD3414846E4
:1010F00000884146084015D00046474017405740F9
:101100003B44F61B07D0002F03D100BF062607463D
:1011100003E0074601E000F013F8D34100BF1B0EC7
:101120002B5509E701341A480480FFF723F801BC66
:1011300086460FBC8046894692469B46FFBC704758
:1011400006265040074600BF00BF00BF00BF00BFDB
:1011500000BF00BF00BF00BF00BF00BF00BF00BF97
:1011600000BF00BF00BF00BF00BF00BF00BF00BF87
:1011700000BF00BF00BF00BF00BF00BF00BF00BF77
:1011800000BF00BF70470000640400200804002076
:101190007A04002000B50200501E92B2002A07D047
:1011A0000022110089B2144A9142F4DA491CF9E78D
:1011B00000BD000038B50A250A2472B6FEF780FF8C
:1011C00062B6FFF749FA3220FFF7E4FF2800C0B209
:1011D00045422000C0B24442002008490870074838
:1011E00045700648847000200449C870002204211C
:1011F0000248FFF7FDF8E6E7511000006C040020FC
:1012000070B40121002213E00468001D0C4202D0DA
:101210004D466D1E64192260241D1B1F042BFAD23B
:1012200025009E0701D52280AD1C0B4000D02A70FE
:101230000368001D002BE7D170BC7047050109024F
:10124000A1010901A10005091901290315002501C2
:10125000950375018102950175058103050109302A
:10126000093109381581257F750895038106C0C0AD
:1012700030B401210268001D002A0FD00368C31892
:10128000446808300C4202D04D466D1E64191D683A
:1012900025601B1D241D121FECD0F8E730BC7047E1
:1012A0002A03740075006F007100690061006E0010
:1012B000670040006F00750074006C006F006F00E5
:1012C0006B002E0063006F006D00000010B5074931
:1012D00079441831064C7C44163404E0081D0A6831
:1012E000891888470100A142F8D110BD50000000C4
:1012F0007000000009022200010100803209040090
:10130000000103010200092110012101223400071C
:1013100005810304000A0000704700B5FEE770472E
:10132000704700B504480068002804D002480068EF
:10133000401E0149086000BD00000020C5FEFFFFFF
:1013400078000000080400200000000025FFFFFFD7
:1013500004000000B40000000000002000000000B5
:1013600000F00BF8002801D0FFF7B0FF0020C046C6
:10137000C046FFF71FFF00F002F80120704780B55C
:1013800000F002F801BDFEE70746384600F002F81B
:10139000FBE7FEE780B5C046C046024A11001820B0
:1013A000ABBEFBE72600020012011001000000089E
:1013B000C016DC0501010000000100001203550009
:1013C000530042002D0032003300320000000000C4
:1013D00001488047014800474D0C0008EF13000802
:1013E00080B5FFF779FD0120FFF72DFD01BDC04657
:1013F000C046C046C046FFF7B3FFFEE70803310012
:101400003000300004030904FF000000FEE7FEE79F
:10141000FEE7FEE7FEE7FEE7FEE7FEE7FEE7FEE7A4
:10142000FEE7FEE7FEE7FEE7FEE7FEE7FEE7FEE794
:0C143000FEE7FEE7FEE7FEE7FEE7FEE752
:04000005080013EFED
:00000001FF
