:020000040800F2
:1000000008040020A1130008ED120008EF120008F8
:1000100000000000000000000000000000000000E0
:10002000000000000000000000000000F3120008C3
:100030000000000000000000F5120008F7120008A0
:100040001F0C00085B13000867130008CB1300089F
:10005000D5130008B1130008D7130008D9130008FE
:10006000DB130008DD130008DF130008E1130008AC
:10007000E3130008E5130008E7130008E91300087C
:10008000EB130008ED13000800000000EF13000858
:10009000F1130008F3130008F5130008F713000824
:1000A000F9130008FB130008FD130008FF130008F4
:1000B0000114000800000000031400080000000004
:1000C00080B50020C94908700020C8494870002048
:1000D000C64988700020C54908710120AA490870E6
:1000E0000020AA4908800020A94908800020BF49B3
:1000F000C87000F09FFA00F0F3FA00F0F5FA01BDC5
:1001000080B58020694608705A20694648700220F0
:10011000B74908806846B749086000F005FB01BD93
:1001200080B5802069460870D22069464870022058
:10013000AF4908806846AF49086000F0F5FA01BD94
:1001400080B5AD480078AA490880AC48A949086044
:1001500000F0EAFA01BD00B5002000210800C0B29D
:10016000102808DAA649C0B2095CA04AC0B2121829
:100170009171401CF3E700BD80B5A14840782D285F
:100180000FD04B2800D1CDE05A2800D1F7E06928E4
:1001900025D0C32876D0D22800D1EFE0E1280FD0B7
:1001A000EEE0012091490870954880789449C9781B
:1001B0004907490FC91D084140008C49C870E2E059
:1001C00003208A4908708E4880788D49C97849078C
:1001D000490FC91D084140008449C870D3E08848D0
:1001E00080784006400E81498978884249D17F480D
:1001F0000079002804D07D4800797C49887009E0A6
:1002000000BF00BF00BF00BF00BF00BF00BF00BFF6
:1002100000BF00BF5E480088012803D101205B4970
:10022000088006E000BF00BF00BF00BF00BF00BFE6
:1002300000BF6E48407802280ED000BFFFF760FF75
:100240006F4880786E49C9784907490FC91D084130
:1002500040006649C87014E000BF00BFFFF770FFA0
:100260000220624908700320604948706448807821
:100270006349C9784907490FC91D084140005B49D6
:10028000C87080E059480078012824D100BF00BF21
:1002900000BF00BF00BF00BF00BF00BF00BF00BF66
:1002A00000BF00BF00BF00BF00BF00BF00BFFFF71F
:1002B00037FF53488078002807D15148C078052877
:1002C00003D14F48007949490871FFF744FF0120E5
:1002D0004649487025E045480078032821D100BFF1
:1002E00000BF00BF00BF00BF00BF00BF00BF00BF16
:1002F00000BF00BF00BF00BF00BF00BF00BF00BF06
:1003000000BF00BF00BF00BF00BF00BF00BFFFF7BE
:1003100007FF36484078002801D1012000E0002086
:10032000C0B230E031480078032826D100BF00BFBA
:1003300000BF00BF00BF00BF00BF00BF00BF00BFC5
:1003400000BF00BF00BF00BF00BF00BF00BF00BFB5
:1003500000BF00BF00BF00BF00BF00BF00BF00BFA5
:1003600000BF00BF00BFFFF7DBFE20484078002839
:1003700001D1012000E00020C0B204E003E002E06F
:1003800000201A49087001BD600400207804002094
:100390007A04002070B5994B002215002A000E0047
:1003A000D2B2F6B2B24216D202785340401C0822B2
:1003B00014002200541ED2B2002A0AD0DA0705D552
:1003C0009BB25B081A008E4B5340F2E79BB25B086E
:1003D000EFE76D1CE2E71A0092B2D3431A000270F5
:1003E000401C1A0092B2120A027070BD380400203C
:1003F0007E040020740400205F0400204F040020CD
:1004000008040020F8B504000E001700FFB2002F0A
:1004100002D04B207B490880F6B2002E4FD08020BE
:100420007949C8757748008877490876F6B2082E6A
:1004300011DB0C207549087002200500EDB20A2D71
:1004400007DA20787049EDB24919C875641C6D1C33
:10045000F4E7083E15E03000001D6C4908700220EA
:100460000500EDB2F6B23000801C854207DA207834
:100470006549EDB24919C875641C6D1CF1E700208F
:10048000060062480078011FC9B26148FFF782FF89
:100490005C4800884B2803D1C3205A49088002E0F9
:1004A0004B205849088002205749487056484078E8
:1004B0000228B1D1544840780328F7D1ACE7F1BD08
:1004C00004205249087080204F49C8754B204E497E
:1004D000087600204C49487600204B498876022057
:1004E00049494870704702204849087080204649B1
:1004F000C8751E2044490876022043494870704759
:1005000080B54148407801286DD13F48007A0028E5
:1005100048D0212865D0802802D0812853D062E0BD
:100520003948407A06283CD13748C07A012804D09F
:1005300037D3032818D006D333E0012212213548DF
:10054000FFF760FF2DE03048807B222806D2012291
:100550002D48817B3048FFF755FF04E0012222211E
:100560002D48FFF74FFF1CE02748807A002805D16F
:10057000012204212948FFF745FF12E02248807A32
:10058000012805D101222A212548FFF73BFF08E079
:100590001D48807A022804D1012210212148FFF74A
:1005A00031FF20E01848407A052802D0092807D0FA
:1005B00008E01548807A14490871FFF781FF01E0CF
:1005C000FFF77EFF0FE01048407A062808D101228D
:1005D00034211548FFF716FF012014490880FFE772
:1005E00001E0FFF780FF01BD80B5114800880028B9
:1005F00002D1FFF785FFF8E701BD0000FFFF000013
:1006000001A000007C040020380400205F040020CA
:10061000510400207C130008C8120008CC13000805
:100620007412000890130008101200087A040020C9
:100630007804002000B583B001218020800200F002
:100640007DFA012000900020694608710320694668
:10065000487102206946C871002069468871694660
:100660009020C00500F07CFA02200090002069462E
:10067000087103206946487102206946C87100204C
:100680006946887169469020C00500F069FA042027
:1006900000900120694608710320694648710120D5
:1006A0006946C87100206946887169469020C00576
:1006B00000F056FA054806490860064806490860F1
:1006C0009020C0050549086007BD000014000048DF
:1006D0006404002010000048680400206C0400201E
:1006E00080B500F09DFA01BDE0B50021002000F0CA
:1006F00021FB01200190002001A90871082001A917
:100700004871012001A9887101A800F041FB052072
:100710006946087001206946487001206946887062
:10072000684600F087FB07BDFFB440464946524685
:100730005B460FB4704601B4FB4800688146FA4F2F
:100740003F683F88F9480740022007434846078032
:10075000F74B1B681A6801208000024340000243E7
:1007600042400120000002434000024342401A6020
:100770000626F04D2D68F04800888346002082460A
:10078000032004210843804600BF00BFFFE700BFED
:1007900000BF50462B5C584500D14FE101308246E6
:1007A0005B0811D300BF00BF00BF00BF00BF00BF88
:1007B00000BF00BF00BF00BF00BF00BF00BF013EC1
:1007C0000ED100F098F90BE0062640464740484617
:1007D000078000BF00BF00BF00BF00BF00BFFFE732
:1007E00000BF00BF00BF00BF00BF00BF00BF00BF11
:1007F00000BF00BF00BF5B0811D300BF00BF00BF38
:1008000000BF00BF00BF00BF00BF00BF00BF00BFF0
:1008100000BF00BF013E0ED100F06DF90BE00626CF
:10082000404647404846078000BF00BF00BF00BFAA
:1008300000BF00BFFFE700BF00BF00BF00BF00BF99
:1008400000BF00BF00BF00BF00BF00BF5B0811D3E7
:1008500000BF00BF00BF00BF00BF00BF00BF00BFA0
:1008600000BF00BF00BF00BF00BF013E0ED100F0BF
:1008700042F90BE00626404647404846078000BF45
:1008800000BF00BF00BF00BF00BFFFE700BF00BF49
:1008900000BF00BF00BF00BF00BF00BF00BF00BF60
:1008A00000BF5B0811D300BF00BF00BF00BF00BF87
:1008B00000BF00BF00BF00BF00BF00BF00BF00BF40
:1008C000013E0ED100F017F90BE0062640464740E6
:1008D0004846078000BF00BF00BF00BF00BF00BF89
:1008E000FFE700BF00BF00BF00BF00BF00BF00BFE9
:1008F00000BF00BF00BF00BF5B0811D300BF00BF37
:1009000000BF00BF00BF00BF00BF00BF00BF00BFEF
:1009100000BF00BF00BF013E0ED100F0ECF80BE0BD
:100920000626404647404846078000BF00BF00BF3C
:1009300000BF00BF00BFFFE700BF00BF00BF00BF98
:1009400000BF00BF00BF00BF00BF00BF00BF5B080B
:1009500011D300BF00BF00BF00BF00BF00BF00BF7A
:1009600000BF00BF00BF00BF00BF00BF013E0ED1EF
:1009700000F0C1F80BE00626404647404846078095
:1009800000BF00BF00BF00BF00BF00BFFFE700BF48
:1009900000BF00BF00BF00BF00BF00BF00BF00BF5F
:1009A00000BF00BF5B0811D300BF00BF00BF00BF86
:1009B00000BF00BF00BF00BF00BF00BF00BF00BF3F
:1009C00000BF013E0ED100F096F80BE0062640462F
:1009D00047404846078000BF00BF00BF00BF00BFC0
:1009E00000BFFFE700BF00BF00BF00BF00BF00BFE8
:1009F00000BF00BF00BF00BF00BF5B0811D300BF36
:100A000000BF00BF00BF00BF00BF00BF00BF00BFEE
:100A100000BF00BF00BF00BF013E0ED100F06BF869
:100A20000BE00626404647404846078000BF00BF0F
:100A300000BF00BF00BF00BFFFE7A8E600BF00BFC8
:100A400000BF00BF00BF40460743474048460780FD
:100A500000BF00BF00BF00BF00BF00BF00BF00BF9E
:100A600000BF00BF00BF00BF00BF00BF00BF00BF8E
:100A700000BF00BF00BF00BF00BF00BF00BF00BF7E
:100A800000BF00BF00BF00BF00BF00BF00BF00BF6E
:100A900000BF00BF00BF00BF00BF00BF00BF00BF5E
:100AA00000BF00BF00BF00BF00BF00BF00BF00BF4E
:100AB00000BF00BF00BF00BF00BF00BF00BF00BF3E
:100AC00000BF00BF0220074348460780184B1B6841
:100AD0001A680320800002434240032000000243C2
:100AE00042401A6001BC86460FBC80468946924649
:100AF0009B46FFBC704700BF00BF00BF00BF00BFE8
:100B000000BF00BF00BF00BF00BF00BF00BF00BFED
:100B10000626404647404846078000BF00BF00BF4A
:100B200000BF00BF7047000064040020FCFFFFFF0F
:100B30006C040020740400207E04002000B5C9B2BB
:100B4000002905D0054A12680243044B1A6004E0EC
:100B5000024A12688243014B1A6000BD1410024021
:100B6000F0B500220023002400252A00102A55D2C7
:100B7000012595402B000D681D402C009C424BD157
:100B80000D79012D02D00D79022D1DD18668032724
:100B9000BC46150002277D436746AF40BE438660D2
:100BA00086684F79BC46150002277D436746AF40F3
:100BB00037438760858801269640B54385808588C0
:100BC0008E7996402E43868006680327BC46150022
:100BD00002277D436746AF40BE43066006680F7933
:100BE000BC46150002277D436746AF403743076088
:100BF000C6680327BC46150002277D436746AF4001
:100C0000BE43C660C668CF79BC46150002277D4347
:100C10006746AF403743C760521CA7E7F0BDFEE709
:100C200080B53848006801210143364801603648E4
:100C30000068364901403448016032480068344950
:100C40000140304801602F480068324901402D487A
:100C500001602D480068304901402B4801602F4851
:100C600000680F2188432D4908602D4800682D49F0
:100C700001402B4801602C480068012188432A4923
:100C8000086000202949086000F001F801BDC0B5E6
:100C900000200190002000901120254908601A488A
:100CA0000068194908601848006817490860164824
:100CB0000068194901401448016013480068A021E8
:100CC00089030143104801600E48006880214904EF
:100CD00001430C4801600B4800688001FBD50A48BD
:100CE000006803218843084908600748006802211A
:100CF000014305480160044800680C2101400829AF
:100D0000F9D103BD00100240041002400CB8FFF8F6
:100D1000FFFFF6FEFFFFFBFFFFFFC0FF2C100240AE
:100D200030100240ACFEFFFF3410024008100240B9
:100D30000020024070B400220F238C07A40F04256A
:100D40006C43A3401A00114BC9B28C1004256C43AC
:100D50001B5993430D4CC9B28D1004267543635142
:100D60000A4BC9B28C1004256C431C59C0B28D07C4
:100D7000AD0F04235D430300AB402343034CC9B2D2
:100D80008D1004267543635170BC70470800014004
:100D900000B50021224A11008279002A36D0204A6B
:100DA000126803689A431E4B1A601E4A1268036851
:100DB0009A431C4B1A60027989180A680368134326
:100DC0000B60194A126803689A43174B1A60174A56
:100DD000126803689A43154B1A604279102A0CD1A5
:100DE000114A1268036813430F4A13600F4A1268CE
:100DF000036813430D4A13600EE0094A110042795B
:100E000089180A68036813430B6005E002798918A2
:100E10000A6803689A430A6000BD05490860704784
:100E20000004014004040140080401400C04014096
:100E30001404014010B500218278002A27D0184AF6
:100E400003789B1004246343D2581100FF220378D7
:100E50009B079B0F082463439A4091430C00417801
:100E60008901C9B202789207920F08235A43914030
:100E700021430B4A03789B1004246343D150012281
:100E80000378DB06DB0E9A40064B1A6006E001226F
:100E90000378DB06DB0E9A40034B1A6010BD00009E
:100EA00000E400E000E100E080E100E0FFB4404643
:100EB000494652465B460FB4704601B4A7480068E5
:100EC00081460320804601270626A54D0024802068
:100ED000285500BF00BF00BF00BF00BF00BF00BF5C
:100EE00000BF00BF00BF00BF0A2000BF00BF00BF9F
:100EF00000BF00BF00BF00BF00BF00BF00BF00BFFA
:100F000000BF0138F1D1012200E0F6E000BF00BFD0
:100F10000023484600884146084000D1ECE00046E6
:100F20004740174057403B44F61B06D0002F02D1E4
:100F30000626074603E0074601E000F0EBF800BF95
:100F400000BF00BF00BF00BF00BF00BF202CDCD02F
:100F5000D341484600884146084000D1CCE00046D5
:100F60004740174057403B44F61B07D0002F03D1A2
:100F700000BF0626074603E0074601E000F0CAF876
:100F800000BF00BF00BF00BF00BF0134D3414846CF
:100F900000884146084000D1AEE000464740174077
:100FA00057403B44F61B07D0002F03D100BF062655
:100FB000074603E0074601E000F0ACF800BF00BFC1
:100FC00000BF00BF00BF00BF00BFD341484600883C
:100FD0004146084000D18FE0004647401740574047
:100FE0003B44F61B07D0002F03D100BF062607465F
:100FF00003E0074601E000F08DF800BF00BF00BF2E
:1010000000BF00BF00BF00BFD34148460088414633
:10101000084000D170E000464740174057403B442D
:10102000F61B07D0002F03D100BF0626074603E0BA
:10103000074601E000F06EF800BF00BF00BF00BF30
:1010400000BF00BF00BFD34148460088414608406A
:1010500000D151E000464740174057403B44F61B43
:1010600007D0002F03D100BF0626074603E007463E
:1010700001E000F04FF800BF00BF00BF00BF00BF9D
:1010800000BF00BFD341484600884146084000D118
:1010900032E000464740174057403B44F61B07D01C
:1010A000002F03D100BF0626074603E0074601E0F4
:1010B00000F030F800BF00BF00BF00BF00BF00BF9E
:1010C000D341484600884146084015D00046474075
:1010D000174057403B44F61B07D0002F03D100BFF9
:1010E0000626074603E0074601E000F013F8D34167
:1010F00000BF1B0E2B5509E701341A480480FFF787
:101100003BF801BC86460FBC8046894692469B460A
:10111000FFBC704706265040074600BF00BF00BF17
:1011200000BF00BF00BF00BF00BF00BF00BF00BFC7
:1011300000BF00BF00BF00BF00BF00BF00BF00BFB7
:1011400000BF00BF00BF00BF00BF00BF00BF00BFA7
:1011500000BF00BF00BF00BF704700006804002050
:10116000080400208004002000B50200501E92B246
:10117000002A07D00022110089B2144A9142F4DA01
:10118000491CF9E700BD000038B50A250A2472B6EB
:10119000FEF796FF62B6FFF727FA3220FFF7E4FF6B
:1011A0002800C0B245422000C0B244420020084995
:1011B0000870074845700648847000200449C870CC
:1011C000002204210248FFF71DF9E6E75110000054
:1011D0007004002070B40121002213E00468001D97
:1011E0000C4202D04D466D1E64192260241D1B1F47
:1011F000042BFAD225009E0701D52280AD1C0B409E
:1012000000D02A700368001D002BE7D170BC704726
:1012100005010902A1010901A1000509190129031C
:10122000150025019503750181029501750581035E
:1012300005010930093109381581257F75089503A5
:101240008106C0C030B401210268001D002A0FD001
:101250000368C318446808300C4202D04D466D1E26
:1012600064191D6825601B1D241D121FECD0F8E7B2
:1012700030BC70471003740075006F007100690086
:1012800061006E00670040006F00750074006C0024
:101290006F006F006B002E0063006F006D00000098
:1012A00010B5074979441831064C7C44163404E0E3
:1012B000081D0A68891888470100A142F8D110BDAD
:1012C00050000000700000000902220001010080AF
:1012D000320904000001030102000921100121016B
:1012E0002234000705810304000A0000704700B59E
:1012F000FEE77047704700B504480068002804D036
:1013000002480068401E0149086000BD000000203E
:10131000C5FEFFFF7C000000080400200000000064
:1013200025FFFFFF04000000A800000000000020CF
:101330000000000000F00BF8002801D0FFF7B0FF1C
:101340000020C046C046FFF71FFF00F002F8012052
:10135000704780B500F002F801BDFEE70746384649
:1013600000F002F8FBE7FEE780B5C046C046024A3F
:1013700011001820ABBEFBE726000200120110018D
:1013800000000008112233445566000000010000EF
:1013900010035500530042002D003200330032008C
:1013A0000148804701480047210C0008BF1300088E
:1013B00080B5FFF77BFD0120FFF72FFD01BDC04683
:1013C000C046C046C046FFF7B5FFFEE70403090468
:1013D000FF000000FEE7FEE7FEE7FEE7FEE7FEE7B0
:1013E000FEE7FEE7FEE7FEE7FEE7FEE7FEE7FEE7D5
:1013F000FEE7FEE7FEE7FEE7FEE7FEE7FEE7FEE7C5
:04140000FEE7FEE71E
:04000005080013BF1D
:00000001FF
